{
  "contractName": "Calc",
  "abi": [
    {
      "constant": true,
      "inputs": [],
      "name": "Result",
      "outputs": [
        {
          "internalType": "int256",
          "name": "",
          "type": "int256"
        }
      ],
      "payable": false,
      "stateMutability": "view",
      "type": "function"
    },
    {
      "constant": false,
      "inputs": [
        {
          "internalType": "uint256",
          "name": "operator",
          "type": "uint256"
        },
        {
          "internalType": "int256",
          "name": "first",
          "type": "int256"
        },
        {
          "internalType": "int256",
          "name": "second",
          "type": "int256"
        }
      ],
      "name": "Add",
      "outputs": [],
      "payable": false,
      "stateMutability": "nonpayable",
      "type": "function"
    },
    {
      "constant": false,
      "inputs": [
        {
          "internalType": "uint256",
          "name": "operator",
          "type": "uint256"
        },
        {
          "internalType": "int256",
          "name": "first",
          "type": "int256"
        },
        {
          "internalType": "int256",
          "name": "second",
          "type": "int256"
        }
      ],
      "name": "Sub",
      "outputs": [],
      "payable": false,
      "stateMutability": "nonpayable",
      "type": "function"
    },
    {
      "constant": false,
      "inputs": [
        {
          "internalType": "uint256",
          "name": "operator",
          "type": "uint256"
        },
        {
          "internalType": "int256",
          "name": "first",
          "type": "int256"
        },
        {
          "internalType": "int256",
          "name": "second",
          "type": "int256"
        }
      ],
      "name": "Mul",
      "outputs": [],
      "payable": false,
      "stateMutability": "nonpayable",
      "type": "function"
    },
    {
      "constant": false,
      "inputs": [
        {
          "internalType": "uint256",
          "name": "operator",
          "type": "uint256"
        },
        {
          "internalType": "int256",
          "name": "first",
          "type": "int256"
        },
        {
          "internalType": "int256",
          "name": "second",
          "type": "int256"
        }
      ],
      "name": "Div",
      "outputs": [],
      "payable": false,
      "stateMutability": "nonpayable",
      "type": "function"
    }
  ],
  "bytecode": "0x608060405234801561001057600080fd5b506103d4806100206000396000f3fe608060405234801561001057600080fd5b50600436106100575760003560e01c80631fa764161461005c57806354fd34971461009e5780636b5f57c0146100e0578063a27791bc14610122578063f4e5d59914610164575b600080fd5b61009c6004803603606081101561007257600080fd5b81019080803590602001909291908035906020019092919080359060200190929190505050610182565b005b6100de600480360360608110156100b457600080fd5b8101908080359060200190929190803590602001909291908035906020019092919050505061020d565b005b610120600480360360608110156100f657600080fd5b81019080803590602001909291908035906020019092919080359060200190929190505050610291565b005b6101626004803603606081101561013857600080fd5b81019080803590602001909291908035906020019092919080359060200190929190505050610315565b005b61016c610399565b6040518082815260200191505060405180910390f35b600483146101f8576040517f08c379a00000000000000000000000000000000000000000000000000000000081526004018080602001828103825260108152602001807f696e76616c6964204f70657261746f720000000000000000000000000000000081525060200191505060405180910390fd5b80828161020157fe5b05600081905550505050565b60028314610283576040517f08c379a00000000000000000000000000000000000000000000000000000000081526004018080602001828103825260108152602001807f696e76616c6964204f70657261746f720000000000000000000000000000000081525060200191505060405180910390fd5b808203600081905550505050565b60038314610307576040517f08c379a00000000000000000000000000000000000000000000000000000000081526004018080602001828103825260108152602001807f696e76616c6964204f70657261746f720000000000000000000000000000000081525060200191505060405180910390fd5b808202600081905550505050565b6001831461038b576040517f08c379a00000000000000000000000000000000000000000000000000000000081526004018080602001828103825260108152602001807f696e76616c6964204f70657261746f720000000000000000000000000000000081525060200191505060405180910390fd5b808201600081905550505050565b6000548156fea265627a7a723158201c548437da22f8823f163ad2b431ac102cd07c6a52b08cb1c6313a6e6ca3c6c264736f6c634300050c0032",
  "source": "pragma solidity ^0.5.10;\n\ncontract Calc {\n  int public Result;\n    function Add(uint operator,int first,int second) public {\n      require(operator==1,'invalid Operator');\n      Result = first + second;\n    }\n    function Sub(uint operator,int first,int second) public {\n      require(operator==2,'invalid Operator');\n      Result = first - second;\n    }\n    function Mul(uint operator,int first,int second) public {\n      require(operator==3,'invalid Operator');\n      Result = first * second;\n    }\n    function Div(uint operator,int first,int second) public {\n      require(operator==4,'invalid Operator');\n      Result = first / second;\n    }\n}",
  "sourcePath": "/home/denny/Code/Samples/Calc/calc-solidity/contracts/Calc.sol",
  "compiler": {
    "name": "solc",
    "version": "0.5.12+commit.7709ece9.Emscripten.clang"
  },
  "schemaVersion": "3.0.17",
  "updatedAt": "2019-11-12T12:34:16.702Z",
  "networkType": "ethereum",
  "devdoc": {
    "methods": {}
  },
  "userdoc": {
    "methods": {}
  }
}